{
  "contractName": "Sample",
  "abi": [
    {
      "constant": true,
      "inputs": [],
      "name": "value",
      "outputs": [
        {
          "name": "",
          "type": "string"
        }
      ],
      "payable": false,
      "stateMutability": "view",
      "type": "function"
    },
    {
      "constant": true,
      "inputs": [],
      "name": "getInt",
      "outputs": [
        {
          "name": "",
          "type": "uint256"
        }
      ],
      "payable": false,
      "stateMutability": "pure",
      "type": "function"
    },
    {
      "constant": true,
      "inputs": [],
      "name": "getStr",
      "outputs": [
        {
          "name": "",
          "type": "string"
        }
      ],
      "payable": false,
      "stateMutability": "pure",
      "type": "function"
    },
    {
      "constant": false,
      "inputs": [
        {
          "name": "_value",
          "type": "string"
        }
      ],
      "name": "setValue",
      "outputs": [],
      "payable": false,
      "stateMutability": "nonpayable",
      "type": "function"
    },
    {
      "constant": true,
      "inputs": [],
      "name": "getValue",
      "outputs": [
        {
          "name": "",
          "type": "string"
        }
      ],
      "payable": false,
      "stateMutability": "view",
      "type": "function"
    }
  ],
  "bytecode": "0x608060405234801561001057600080fd5b5061052f806100206000396000f3fe608060405234801561001057600080fd5b50600436106100575760003560e01c8063209652551461005c5780633fa4f245146100df578063627389981461016257806393a0935214610180578063b8c9e4ed1461023b575b600080fd5b6100646102be565b6040518080602001828103825283818151815260200191508051906020019080838360005b838110156100a4578082015181840152602081019050610089565b50505050905090810190601f1680156100d15780820380516001836020036101000a031916815260200191505b509250505060405180910390f35b6100e7610360565b6040518080602001828103825283818151815260200191508051906020019080838360005b8381101561012757808201518184015260208101905061010c565b50505050905090810190601f1680156101545780820380516001836020036101000a031916815260200191505b509250505060405180910390f35b61016a6103fe565b6040518082815260200191505060405180910390f35b6102396004803603602081101561019657600080fd5b81019080803590602001906401000000008111156101b357600080fd5b8201836020820111156101c557600080fd5b803590602001918460018302840111640100000000831117156101e757600080fd5b91908080601f016020809104026020016040519081016040528093929190818152602001838380828437600081840152601f19601f820116905080830192505050505050509192919290505050610407565b005b610243610421565b6040518080602001828103825283818151815260200191508051906020019080838360005b83811015610283578082015181840152602081019050610268565b50505050905090810190601f1680156102b05780820380516001836020036101000a031916815260200191505b509250505060405180910390f35b606060008054600181600116156101000203166002900480601f0160208091040260200160405190810160405280929190818152602001828054600181600116156101000203166002900480156103565780601f1061032b57610100808354040283529160200191610356565b820191906000526020600020905b81548152906001019060200180831161033957829003601f168201915b5050505050905090565b60008054600181600116156101000203166002900480601f0160208091040260200160405190810160405280929190818152602001828054600181600116156101000203166002900480156103f65780601f106103cb576101008083540402835291602001916103f6565b820191906000526020600020905b8154815290600101906020018083116103d957829003601f168201915b505050505081565b6000600c905090565b806000908051906020019061041d92919061045e565b5050565b60606040518060400160405280600d81526020017f6765745374722072657475726e00000000000000000000000000000000000000815250905090565b828054600181600116156101000203166002900490600052602060002090601f016020900481019282601f1061049f57805160ff19168380011785556104cd565b828001600101855582156104cd579182015b828111156104cc5782518255916020019190600101906104b1565b5b5090506104da91906104de565b5090565b61050091905b808211156104fc5760008160009055506001016104e4565b5090565b9056fea165627a7a7230582063492851ddcf5f4ec29006eebebe1a1d20182a52c2b8af48eae1c4beeda844bc0029",
  "source": "pragma solidity >0.4.99 <0.6.0;\n\ncontract Sample {\n\n    string public value;\n\n    function getInt() public pure returns(uint) {\n        return 12;\n    }\n\n    function getStr() public pure returns(string memory) {\n        return 'getStr return';\n    }\n\n    function setValue(string memory _value) public {\n        value = _value;\n    }\n\n    function getValue() public view returns(string memory){\n        return value;\n    }\n}\n",
  "sourcePath": "/Users/yukofeb/Work/blockchain/truffle/WorkHistorySample/contracts/Sample.sol",
  "compiler": {
    "name": "solc",
    "version": "0.5.8+commit.23d335f2.Emscripten.clang"
  },
  "schemaVersion": "3.0.11",
  "updatedAt": "2019-08-02T02:43:06.152Z",
  "devdoc": {
    "methods": {}
  },
  "userdoc": {
    "methods": {}
  }
}