{
  "contractName": "UserHistory",
  "abi": [
    {
      "constant": true,
      "inputs": [
        {
          "name": "",
          "type": "address"
        },
        {
          "name": "",
          "type": "uint256"
        }
      ],
      "name": "ownerToHistoryIds",
      "outputs": [
        {
          "name": "",
          "type": "uint256"
        }
      ],
      "payable": false,
      "stateMutability": "view",
      "type": "function"
    },
    {
      "constant": true,
      "inputs": [
        {
          "name": "",
          "type": "uint256"
        }
      ],
      "name": "historyIdToOwner",
      "outputs": [
        {
          "name": "",
          "type": "address"
        }
      ],
      "payable": false,
      "stateMutability": "view",
      "type": "function"
    },
    {
      "constant": true,
      "inputs": [
        {
          "name": "",
          "type": "uint256"
        }
      ],
      "name": "userHistories",
      "outputs": [
        {
          "name": "company",
          "type": "string"
        },
        {
          "name": "startDate",
          "type": "string"
        },
        {
          "name": "endDate",
          "type": "string"
        },
        {
          "name": "role",
          "type": "string"
        }
      ],
      "payable": false,
      "stateMutability": "view",
      "type": "function"
    },
    {
      "constant": true,
      "inputs": [
        {
          "name": "",
          "type": "address"
        }
      ],
      "name": "userHistoryCount",
      "outputs": [
        {
          "name": "",
          "type": "uint256"
        }
      ],
      "payable": false,
      "stateMutability": "view",
      "type": "function"
    },
    {
      "anonymous": false,
      "inputs": [
        {
          "indexed": false,
          "name": "historyId",
          "type": "uint256"
        },
        {
          "indexed": false,
          "name": "company",
          "type": "string"
        },
        {
          "indexed": false,
          "name": "startDate",
          "type": "string"
        },
        {
          "indexed": false,
          "name": "endDate",
          "type": "string"
        },
        {
          "indexed": false,
          "name": "role",
          "type": "string"
        }
      ],
      "name": "UserHistoryCreated",
      "type": "event"
    },
    {
      "constant": false,
      "inputs": [
        {
          "name": "_company",
          "type": "string"
        },
        {
          "name": "_startDate",
          "type": "string"
        },
        {
          "name": "_endDate",
          "type": "string"
        },
        {
          "name": "_role",
          "type": "string"
        }
      ],
      "name": "setHistory",
      "outputs": [],
      "payable": false,
      "stateMutability": "nonpayable",
      "type": "function"
    },
    {
      "constant": true,
      "inputs": [
        {
          "name": "_address",
          "type": "address"
        }
      ],
      "name": "getOwnHistoryIds",
      "outputs": [
        {
          "name": "",
          "type": "uint256[]"
        }
      ],
      "payable": false,
      "stateMutability": "view",
      "type": "function"
    },
    {
      "constant": true,
      "inputs": [
        {
          "name": "_historyId",
          "type": "uint256"
        }
      ],
      "name": "getOwnHistories",
      "outputs": [
        {
          "name": "",
          "type": "string"
        },
        {
          "name": "",
          "type": "string"
        },
        {
          "name": "",
          "type": "string"
        },
        {
          "name": "",
          "type": "string"
        }
      ],
      "payable": false,
      "stateMutability": "view",
      "type": "function"
    }
  ],
  "bytecode": "0x608060405234801561001057600080fd5b506113db806100206000396000f3fe608060405234801561001057600080fd5b506004361061007d5760003560e01c80639d13d0ab1161005b5780639d13d0ab146101eb578063aec3c394146103d6578063cd43f3491461042e578063cf613002146106ae5761007d565b80636f0658a11461008257806370394881146100e457806373e9cef114610152575b600080fd5b6100ce6004803603604081101561009857600080fd5b81019080803573ffffffffffffffffffffffffffffffffffffffff16906020019092919080359060200190929190505050610899565b6040518082815260200191505060405180910390f35b610110600480360360208110156100fa57600080fd5b81019080803590602001909291905050506108c7565b604051808273ffffffffffffffffffffffffffffffffffffffff1673ffffffffffffffffffffffffffffffffffffffff16815260200191505060405180910390f35b6101946004803603602081101561016857600080fd5b81019080803573ffffffffffffffffffffffffffffffffffffffff1690602001909291905050506108fa565b6040518080602001828103825283818151815260200191508051906020019060200280838360005b838110156101d75780820151818401526020810190506101bc565b505050509050019250505060405180910390f35b6102176004803603602081101561020157600080fd5b8101908080359060200190929190505050610991565b6040518080602001806020018060200180602001858103855289818151815260200191508051906020019080838360005b83811015610263578082015181840152602081019050610248565b50505050905090810190601f1680156102905780820380516001836020036101000a031916815260200191505b50858103845288818151815260200191508051906020019080838360005b838110156102c95780820151818401526020810190506102ae565b50505050905090810190601f1680156102f65780820380516001836020036101000a031916815260200191505b50858103835287818151815260200191508051906020019080838360005b8381101561032f578082015181840152602081019050610314565b50505050905090810190601f16801561035c5780820380516001836020036101000a031916815260200191505b50858103825286818151815260200191508051906020019080838360005b8381101561039557808201518184015260208101905061037a565b50505050905090810190601f1680156103c25780820380516001836020036101000a031916815260200191505b509850505050505050505060405180910390f35b610418600480360360208110156103ec57600080fd5b81019080803573ffffffffffffffffffffffffffffffffffffffff169060200190929190505050610c2e565b6040518082815260200191505060405180910390f35b6106ac6004803603608081101561044457600080fd5b810190808035906020019064010000000081111561046157600080fd5b82018360208201111561047357600080fd5b8035906020019184600183028401116401000000008311171561049557600080fd5b91908080601f016020809104026020016040519081016040528093929190818152602001838380828437600081840152601f19601f820116905080830192505050505050509192919290803590602001906401000000008111156104f857600080fd5b82018360208201111561050a57600080fd5b8035906020019184600183028401116401000000008311171561052c57600080fd5b91908080601f016020809104026020016040519081016040528093929190818152602001838380828437600081840152601f19601f8201169050808301925050505050505091929192908035906020019064010000000081111561058f57600080fd5b8201836020820111156105a157600080fd5b803590602001918460018302840111640100000000831117156105c357600080fd5b91908080601f016020809104026020016040519081016040528093929190818152602001838380828437600081840152601f19601f8201169050808301925050505050505091929192908035906020019064010000000081111561062657600080fd5b82018360208201111561063857600080fd5b8035906020019184600183028401116401000000008311171561065a57600080fd5b91908080601f016020809104026020016040519081016040528093929190818152602001838380828437600081840152601f19601f820116905080830192505050505050509192919290505050610c46565b005b6106da600480360360208110156106c457600080fd5b810190808035906020019092919050505061100d565b6040518080602001806020018060200180602001858103855289818151815260200191508051906020019080838360005b8381101561072657808201518184015260208101905061070b565b50505050905090810190601f1680156107535780820380516001836020036101000a031916815260200191505b50858103845288818151815260200191508051906020019080838360005b8381101561078c578082015181840152602081019050610771565b50505050905090810190601f1680156107b95780820380516001836020036101000a031916815260200191505b50858103835287818151815260200191508051906020019080838360005b838110156107f25780820151818401526020810190506107d7565b50505050905090810190601f16801561081f5780820380516001836020036101000a031916815260200191505b50858103825286818151815260200191508051906020019080838360005b8381101561085857808201518184015260208101905061083d565b50505050905090810190601f1680156108855780820380516001836020036101000a031916815260200191505b509850505050505050505060405180910390f35b600260205281600052604060002081815481106108b257fe5b90600052602060002001600091509150505481565b60016020528060005260406000206000915054906101000a900473ffffffffffffffffffffffffffffffffffffffff1681565b6060600260008373ffffffffffffffffffffffffffffffffffffffff1673ffffffffffffffffffffffffffffffffffffffff16815260200190815260200160002080548060200260200160405190810160405280929190818152602001828054801561098557602002820191906000526020600020905b815481526020019060010190808311610971575b50505050509050919050565b6000818154811061099e57fe5b9060005260206000209060040201600091509050806000018054600181600116156101000203166002900480601f016020809104026020016040519081016040528092919081815260200182805460018160011615610100020316600290048015610a4a5780601f10610a1f57610100808354040283529160200191610a4a565b820191906000526020600020905b815481529060010190602001808311610a2d57829003601f168201915b505050505090806001018054600181600116156101000203166002900480601f016020809104026020016040519081016040528092919081815260200182805460018160011615610100020316600290048015610ae85780601f10610abd57610100808354040283529160200191610ae8565b820191906000526020600020905b815481529060010190602001808311610acb57829003601f168201915b505050505090806002018054600181600116156101000203166002900480601f016020809104026020016040519081016040528092919081815260200182805460018160011615610100020316600290048015610b865780601f10610b5b57610100808354040283529160200191610b86565b820191906000526020600020905b815481529060010190602001808311610b6957829003601f168201915b505050505090806003018054600181600116156101000203166002900480601f016020809104026020016040519081016040528092919081815260200182805460018160011615610100020316600290048015610c245780601f10610bf957610100808354040283529160200191610c24565b820191906000526020600020905b815481529060010190602001808311610c0757829003601f168201915b5050505050905084565b60036020528060005260406000206000915090505481565b600060016000604051806080016040528088815260200187815260200186815260200185815250908060018154018082558091505090600182039060005260206000209060040201600090919290919091506000820151816000019080519060200190610cb492919061130a565b506020820151816001019080519060200190610cd192919061130a565b506040820151816002019080519060200190610cee92919061130a565b506060820151816003019080519060200190610d0b92919061130a565b505050039050336001600083815260200190815260200160002060006101000a81548173ffffffffffffffffffffffffffffffffffffffff021916908373ffffffffffffffffffffffffffffffffffffffff160217905550600260003373ffffffffffffffffffffffffffffffffffffffff1673ffffffffffffffffffffffffffffffffffffffff168152602001908152602001600020819080600181540180825580915050906001820390600052602060002001600090919290919091505550600360003373ffffffffffffffffffffffffffffffffffffffff1673ffffffffffffffffffffffffffffffffffffffff168152602001908152602001600020600081548092919060010191905055507f0c3a8e6650a40834e42dbfbcfe81698a303488a23285859d1b1cad9e225a5e8981868686866040518086815260200180602001806020018060200180602001858103855289818151815260200191508051906020019080838360005b83811015610e93578082015181840152602081019050610e78565b50505050905090810190601f168015610ec05780820380516001836020036101000a031916815260200191505b50858103845288818151815260200191508051906020019080838360005b83811015610ef9578082015181840152602081019050610ede565b50505050905090810190601f168015610f265780820380516001836020036101000a031916815260200191505b50858103835287818151815260200191508051906020019080838360005b83811015610f5f578082015181840152602081019050610f44565b50505050905090810190601f168015610f8c5780820380516001836020036101000a031916815260200191505b50858103825286818151815260200191508051906020019080838360005b83811015610fc5578082015181840152602081019050610faa565b50505050905090810190601f168015610ff25780820380516001836020036101000a031916815260200191505b50995050505050505050505060405180910390a15050505050565b6060806060806000858154811061102057fe5b90600052602060002090600402016000016000868154811061103e57fe5b90600052602060002090600402016001016000878154811061105c57fe5b90600052602060002090600402016002016000888154811061107a57fe5b9060005260206000209060040201600301838054600181600116156101000203166002900480601f0160208091040260200160405190810160405280929190818152602001828054600181600116156101000203166002900480156111205780601f106110f557610100808354040283529160200191611120565b820191906000526020600020905b81548152906001019060200180831161110357829003601f168201915b50505050509350828054600181600116156101000203166002900480601f0160208091040260200160405190810160405280929190818152602001828054600181600116156101000203166002900480156111bc5780601f10611191576101008083540402835291602001916111bc565b820191906000526020600020905b81548152906001019060200180831161119f57829003601f168201915b50505050509250818054600181600116156101000203166002900480601f0160208091040260200160405190810160405280929190818152602001828054600181600116156101000203166002900480156112585780601f1061122d57610100808354040283529160200191611258565b820191906000526020600020905b81548152906001019060200180831161123b57829003601f168201915b50505050509150808054600181600116156101000203166002900480601f0160208091040260200160405190810160405280929190818152602001828054600181600116156101000203166002900480156112f45780601f106112c9576101008083540402835291602001916112f4565b820191906000526020600020905b8154815290600101906020018083116112d757829003601f168201915b5050505050905093509350935093509193509193565b828054600181600116156101000203166002900490600052602060002090601f016020900481019282601f1061134b57805160ff1916838001178555611379565b82800160010185558215611379579182015b8281111561137857825182559160200191906001019061135d565b5b509050611386919061138a565b5090565b6113ac91905b808211156113a8576000816000905550600101611390565b5090565b9056fea165627a7a72305820c4778893bc4555baf943fc8401c94620cecd2c132dd3a649c061581c7edab6220029",
  "source": "pragma solidity >0.4.99 <0.6.0;\r\n\r\ncontract UserHistory {\r\n\r\n    event UserHistoryCreated(\r\n        uint historyId,\r\n        string company,\r\n        string startDate,\r\n        string endDate,\r\n        string role\r\n    );\r\n        \r\n    struct UserHistory {\r\n        string company;\r\n        string startDate;\r\n        string endDate;\r\n        string role;\r\n    }\r\n    \r\n    UserHistory[] public userHistories;\r\n    \r\n    mapping (uint => address) public historyIdToOwner;\r\n    mapping (address => uint[]) public ownerToHistoryIds;\r\n    mapping (address => uint) public userHistoryCount;\r\n    \r\n    function setHistory(\r\n        string memory _company,\r\n        string memory _startDate,\r\n        string memory _endDate,\r\n        string memory _role) public {\r\n            // UserHistoryにpushし、戻り値-1をidとする\r\n            uint id = userHistories.push(UserHistory(_company, _startDate, _endDate, _role)) - 1;\r\n            // データをhistoryIdToOwner, ownerToHistoryIdsに登録\r\n            historyIdToOwner[id] = msg.sender;\r\n            ownerToHistoryIds[msg.sender].push(id);\r\n            // userHistoryCountをincrement\r\n            userHistoryCount[msg.sender]++;\r\n            // Event\r\n            emit UserHistoryCreated(id, _company, _startDate, _endDate, _role);\r\n    }\r\n    \r\n    function getOwnHistoryIds(address _address) public view returns (uint[] memory) {\r\n        // historyId[]からUserHistoryの要素を取得\r\n        return ownerToHistoryIds[_address];\r\n    }\r\n\r\n    function getOwnHistories(uint _historyId) public view returns (string memory, string memory, string memory, string memory) {\r\n        // historyIdからUserHistoryの全要素を取得\r\n        return (userHistories[_historyId].company,\r\n                userHistories[_historyId].startDate,\r\n                userHistories[_historyId].endDate,\r\n                userHistories[_historyId].role);\r\n    }\r\n}",
  "sourcePath": "/Users/yukofeb/Work/blockchain/truffle/WorkHistorySample/contracts/UserHistory.sol",
  "compiler": {
    "name": "solc",
    "version": "0.5.8+commit.23d335f2.Emscripten.clang"
  },
  "schemaVersion": "3.0.11",
  "updatedAt": "2019-08-02T02:43:06.159Z",
  "devdoc": {
    "methods": {}
  },
  "userdoc": {
    "methods": {}
  }
}